{
  "contractName": "BuildingDataFactory",
  "abi": [
    {
      "inputs": [
        {
          "internalType": "address",
          "name": "admin",
          "type": "address"
        }
      ],
      "stateMutability": "nonpayable",
      "type": "constructor"
    },
    {
      "anonymous": false,
      "inputs": [
        {
          "indexed": false,
          "internalType": "address",
          "name": "buildingContractAddress",
          "type": "address"
        },
        {
          "indexed": false,
          "internalType": "string",
          "name": "documentHash",
          "type": "string"
        },
        {
          "indexed": false,
          "internalType": "string",
          "name": "docType",
          "type": "string"
        },
        {
          "indexed": false,
          "internalType": "string",
          "name": "timestamp",
          "type": "string"
        },
        {
          "indexed": false,
          "internalType": "address",
          "name": "originator",
          "type": "address"
        }
      ],
      "name": "SurveyRegistered",
      "type": "event"
    },
    {
      "inputs": [
        {
          "internalType": "bytes14",
          "name": "uprn",
          "type": "bytes14"
        }
      ],
      "name": "isBuildingRegistered",
      "outputs": [
        {
          "internalType": "bool",
          "name": "",
          "type": "bool"
        }
      ],
      "stateMutability": "view",
      "type": "function",
      "constant": true
    },
    {
      "inputs": [
        {
          "internalType": "bytes14",
          "name": "uprn",
          "type": "bytes14"
        }
      ],
      "name": "buildingAddress",
      "outputs": [
        {
          "internalType": "address",
          "name": "",
          "type": "address"
        }
      ],
      "stateMutability": "view",
      "type": "function",
      "constant": true
    },
    {
      "inputs": [
        {
          "internalType": "string",
          "name": "documentHash",
          "type": "string"
        }
      ],
      "name": "buildingDataAddressByHash",
      "outputs": [
        {
          "internalType": "address",
          "name": "",
          "type": "address"
        }
      ],
      "stateMutability": "view",
      "type": "function",
      "constant": true
    },
    {
      "inputs": [
        {
          "internalType": "bytes14",
          "name": "uprn",
          "type": "bytes14"
        }
      ],
      "name": "findOrCreateBuilding",
      "outputs": [
        {
          "internalType": "address",
          "name": "",
          "type": "address"
        }
      ],
      "stateMutability": "nonpayable",
      "type": "function"
    },
    {
      "inputs": [],
      "name": "countOfBuildings",
      "outputs": [
        {
          "internalType": "uint256",
          "name": "",
          "type": "uint256"
        }
      ],
      "stateMutability": "view",
      "type": "function",
      "constant": true
    },
    {
      "inputs": [],
      "name": "getAllBuildings",
      "outputs": [
        {
          "internalType": "address[]",
          "name": "_buildings",
          "type": "address[]"
        }
      ],
      "stateMutability": "view",
      "type": "function",
      "constant": true
    },
    {
      "inputs": [],
      "name": "getAllBuildingData",
      "outputs": [
        {
          "internalType": "address[]",
          "name": "_buildingData",
          "type": "address[]"
        }
      ],
      "stateMutability": "view",
      "type": "function",
      "constant": true
    },
    {
      "inputs": [
        {
          "internalType": "bytes14",
          "name": "uprn",
          "type": "bytes14"
        },
        {
          "internalType": "string",
          "name": "documentHash",
          "type": "string"
        },
        {
          "internalType": "string",
          "name": "docType",
          "type": "string"
        },
        {
          "internalType": "string",
          "name": "timestamp",
          "type": "string"
        }
      ],
      "name": "trackBuildingData",
      "outputs": [
        {
          "internalType": "address",
          "name": "",
          "type": "address"
        }
      ],
      "stateMutability": "nonpayable",
      "type": "function"
    }
  ],
  "bytecode": "0x60806040523480156200001157600080fd5b50604051620024c4380380620024c4833981810160405281019062000037919062000095565b806000806101000a81548173ffffffffffffffffffffffffffffffffffffffff021916908373ffffffffffffffffffffffffffffffffffffffff160217905550506200010f565b6000815190506200008f81620000f5565b92915050565b600060208284031215620000a857600080fd5b6000620000b8848285016200007e565b91505092915050565b6000620000ce82620000d5565b9050919050565b600073ffffffffffffffffffffffffffffffffffffffff82169050919050565b6200010081620000c1565b81146200010c57600080fd5b50565b6123a5806200011f6000396000f3fe60806040523480156200001157600080fd5b5060043610620000945760003560e01c8063b6de83731162000063578063b6de83731462000149578063d79813c4146200017f578063db894e2514620001a1578063e7d7889e14620001d75762000094565b8063378fda271462000099578063664e55ce14620000bb5780639f58288c14620000f1578063a47b3d601462000113575b600080fd5b620000a36200020d565b604051620000b291906200102b565b60405180910390f35b620000d96004803603810190620000d3919062000cac565b6200021a565b604051620000e8919062000f1b565b60405180910390f35b620000fb62000567565b6040516200010a919062000fb0565b60405180910390f35b6200013160048036038101906200012b919062000c80565b620006fc565b60405162000140919062000fd4565b60405180910390f35b62000167600480360381019062000161919062000c80565b62000792565b60405162000176919062000f1b565b60405180910390f35b62000189620009b7565b60405162000198919062000fb0565b60405180910390f35b620001bf6004803603810190620001b9919062000d71565b62000b4c565b604051620001ce919062000f1b565b60405180910390f35b620001f56004803603810190620001ef919062000c80565b62000b99565b60405162000204919062000f1b565b60405180910390f35b6000600180549050905090565b600080620002288962000792565b905060008190506000339050600073ffffffffffffffffffffffffffffffffffffffff1660048b8b6040516200026092919062000f00565b908152602001604051809103902060009054906101000a900473ffffffffffffffffffffffffffffffffffffffff1673ffffffffffffffffffffffffffffffffffffffff1614620002f95760048a8a604051620002bf92919062000f00565b908152602001604051809103902060009054906101000a900473ffffffffffffffffffffffffffffffffffffffff1693505050506200055c565b60008060009054906101000a900473ffffffffffffffffffffffffffffffffffffffff166040516200032b9062000c00565b62000337919062000f1b565b604051809103906000f08015801562000354573d6000803e3d6000fd5b5090508073ffffffffffffffffffffffffffffffffffffffff166308277dda858d8d8d8d8d8d8a6040518963ffffffff1660e01b8152600401620003a098979695949392919062000f38565b600060405180830381600087803b158015620003bb57600080fd5b505af1158015620003d0573d6000803e3d6000fd5b505050508273ffffffffffffffffffffffffffffffffffffffff16633081b570826040518263ffffffff1660e01b81526004016200040f91906200100e565b600060405180830381600087803b1580156200042a57600080fd5b505af11580156200043f573d6000803e3d6000fd5b5050505060008190506002819080600181540180825580915050600190039060005260206000200160009091909190916101000a81548173ffffffffffffffffffffffffffffffffffffffff021916908373ffffffffffffffffffffffffffffffffffffffff1602179055508060048d8d604051620004c092919062000f00565b908152602001604051809103902060006101000a81548173ffffffffffffffffffffffffffffffffffffffff021916908373ffffffffffffffffffffffffffffffffffffffff1602179055507fff3a906fe82bf4c738cdaad4b688ff4325b044127eaa61d971cc8a298ce2fd9f858d8d8d8d8d8d8a6040516200054b98979695949392919062000f38565b60405180910390a180955050505050505b979650505050505050565b606060018054905067ffffffffffffffff811115620005af577f4e487b7100000000000000000000000000000000000000000000000000000000600052604160045260246000fd5b604051908082528060200260200182016040528015620005de5781602001602082028036833780820191505090505b509050600080600090505b600180549050811015620006f7576001818154811062000632577f4e487b7100000000000000000000000000000000000000000000000000000000600052603260045260246000fd5b9060005260206000200160009054906101000a900473ffffffffffffffffffffffffffffffffffffffff1683838151811062000697577f4e487b7100000000000000000000000000000000000000000000000000000000600052603260045260246000fd5b602002602001019073ffffffffffffffffffffffffffffffffffffffff16908173ffffffffffffffffffffffffffffffffffffffff16815250508180620006de906200114a565b9250508080620006ee906200114a565b915050620005e9565b505090565b60008073ffffffffffffffffffffffffffffffffffffffff16600360008471ffffffffffffffffffffffffffffffffffff191671ffffffffffffffffffffffffffffffffffff1916815260200190815260200160002060009054906101000a900473ffffffffffffffffffffffffffffffffffffffff1673ffffffffffffffffffffffffffffffffffffffff1614159050919050565b60006200079f82620006fc565b620009525760008060009054906101000a900473ffffffffffffffffffffffffffffffffffffffff16604051620007d69062000c0e565b620007e2919062000f1b565b604051809103906000f080158015620007ff573d6000803e3d6000fd5b5090508073ffffffffffffffffffffffffffffffffffffffff16638188fa59846040518263ffffffff1660e01b81526004016200083d919062000ff1565b600060405180830381600087803b1580156200085857600080fd5b505af11580156200086d573d6000803e3d6000fd5b5050505080600360008571ffffffffffffffffffffffffffffffffffff191671ffffffffffffffffffffffffffffffffffff1916815260200190815260200160002060006101000a81548173ffffffffffffffffffffffffffffffffffffffff021916908373ffffffffffffffffffffffffffffffffffffffff1602179055506001819080600181540180825580915050600190039060005260206000200160009091909190916101000a81548173ffffffffffffffffffffffffffffffffffffffff021916908373ffffffffffffffffffffffffffffffffffffffff160217905550505b600360008371ffffffffffffffffffffffffffffffffffff191671ffffffffffffffffffffffffffffffffffff1916815260200190815260200160002060009054906101000a900473ffffffffffffffffffffffffffffffffffffffff169050919050565b606060028054905067ffffffffffffffff811115620009ff577f4e487b7100000000000000000000000000000000000000000000000000000000600052604160045260246000fd5b60405190808252806020026020018201604052801562000a2e5781602001602082028036833780820191505090505b509050600080600090505b60028054905081101562000b47576002818154811062000a82577f4e487b7100000000000000000000000000000000000000000000000000000000600052603260045260246000fd5b9060005260206000200160009054906101000a900473ffffffffffffffffffffffffffffffffffffffff1683838151811062000ae7577f4e487b7100000000000000000000000000000000000000000000000000000000600052603260045260246000fd5b602002602001019073ffffffffffffffffffffffffffffffffffffffff16908173ffffffffffffffffffffffffffffffffffffffff1681525050818062000b2e906200114a565b925050808062000b3e906200114a565b91505062000a39565b505090565b60006004838360405162000b6292919062000f00565b908152602001604051809103902060009054906101000a900473ffffffffffffffffffffffffffffffffffffffff16905092915050565b6000600360008371ffffffffffffffffffffffffffffffffffff191671ffffffffffffffffffffffffffffffffffff1916815260200190815260200160002060009054906101000a900473ffffffffffffffffffffffffffffffffffffffff169050919050565b61094d80620011f383390190565b6108308062001b4083390190565b60008135905062000c2d81620011d8565b92915050565b60008083601f84011262000c4657600080fd5b8235905067ffffffffffffffff81111562000c6057600080fd5b60208301915083600182028301111562000c7957600080fd5b9250929050565b60006020828403121562000c9357600080fd5b600062000ca38482850162000c1c565b91505092915050565b60008060008060008060006080888a03121562000cc857600080fd5b600062000cd88a828b0162000c1c565b975050602088013567ffffffffffffffff81111562000cf657600080fd5b62000d048a828b0162000c33565b9650965050604088013567ffffffffffffffff81111562000d2457600080fd5b62000d328a828b0162000c33565b9450945050606088013567ffffffffffffffff81111562000d5257600080fd5b62000d608a828b0162000c33565b925092505092959891949750929550565b6000806020838503121562000d8557600080fd5b600083013567ffffffffffffffff81111562000da057600080fd5b62000dae8582860162000c33565b92509250509250929050565b600062000dc8838362000dd4565b60208301905092915050565b62000ddf816200109d565b82525050565b62000df0816200109d565b82525050565b600062000e038262001058565b62000e0f818562001070565b935062000e1c8362001048565b8060005b8381101562000e5357815162000e37888262000dba565b975062000e448362001063565b92505060018101905062000e20565b5085935050505092915050565b62000e6b81620010b1565b82525050565b62000e7c81620010bd565b82525050565b62000e8d8162001113565b82525050565b600062000ea1838562001081565b935062000eb08385846200113b565b62000ebb83620011c7565b840190509392505050565b600062000ed4838562001092565b935062000ee38385846200113b565b82840190509392505050565b62000efa8162001109565b82525050565b600062000f0f82848662000ec6565b91508190509392505050565b600060208201905062000f32600083018462000de5565b92915050565b600060a08201905062000f4f600083018b62000de5565b818103602083015262000f6481898b62000e93565b9050818103604083015262000f7b81878962000e93565b9050818103606083015262000f9281858762000e93565b905062000fa3608083018462000de5565b9998505050505050505050565b6000602082019050818103600083015262000fcc818462000df6565b905092915050565b600060208201905062000feb600083018462000e60565b92915050565b600060208201905062001008600083018462000e71565b92915050565b600060208201905062001025600083018462000e82565b92915050565b600060208201905062001042600083018462000eef565b92915050565b6000819050602082019050919050565b600081519050919050565b6000602082019050919050565b600082825260208201905092915050565b600082825260208201905092915050565b600081905092915050565b6000620010aa82620010e9565b9050919050565b60008115159050919050565b60007fffffffffffffffffffffffffffff00000000000000000000000000000000000082169050919050565b600073ffffffffffffffffffffffffffffffffffffffff82169050919050565b6000819050919050565b6000620011208262001127565b9050919050565b60006200113482620010e9565b9050919050565b82818337600083830152505050565b6000620011578262001109565b91507fffffffffffffffffffffffffffffffffffffffffffffffffffffffffffffffff8214156200118d576200118c62001198565b5b600182019050919050565b7f4e487b7100000000000000000000000000000000000000000000000000000000600052601160045260246000fd5b6000601f19601f8301169050919050565b620011e381620010bd565b8114620011ef57600080fd5b5056fe608060405234801561001057600080fd5b5060405161094d38038061094d833981810160405281019061003291906100ce565b33600160006101000a81548173ffffffffffffffffffffffffffffffffffffffff021916908373ffffffffffffffffffffffffffffffffffffffff160217905550806000806101000a81548173ffffffffffffffffffffffffffffffffffffffff021916908373ffffffffffffffffffffffffffffffffffffffff16021790555050610140565b6000815190506100c881610129565b92915050565b6000602082840312156100e057600080fd5b60006100ee848285016100b9565b91505092915050565b600061010282610109565b9050919050565b600073ffffffffffffffffffffffffffffffffffffffff82169050919050565b610132816100f7565b811461013d57600080fd5b50565b6107fe8061014f6000396000f3fe608060405234801561001057600080fd5b50600436106100365760003560e01c806308277dda1461003b578063cc80f6f314610057575b600080fd5b610055600480360381019061005091906104d6565b610079565b005b61005f6101cb565b60405161007095949392919061060d565b60405180910390f35b600160009054906101000a900473ffffffffffffffffffffffffffffffffffffffff1673ffffffffffffffffffffffffffffffffffffffff163373ffffffffffffffffffffffffffffffffffffffff1614610109576040517f08c379a000000000000000000000000000000000000000000000000000000000815260040161010090610675565b60405180910390fd5b87600660006101000a81548173ffffffffffffffffffffffffffffffffffffffff021916908373ffffffffffffffffffffffffffffffffffffffff16021790555084846003919061015b9291906103d4565b5086866004919061016d9291906103d4565b5080600260006101000a81548173ffffffffffffffffffffffffffffffffffffffff021916908373ffffffffffffffffffffffffffffffffffffffff1602179055508282600591906101c09291906103d4565b505050505050505050565b6060806060600080600460036005600260009054906101000a900473ffffffffffffffffffffffffffffffffffffffff16600660009054906101000a900473ffffffffffffffffffffffffffffffffffffffff1684805461022b90610716565b80601f016020809104026020016040519081016040528092919081815260200182805461025790610716565b80156102a45780601f10610279576101008083540402835291602001916102a4565b820191906000526020600020905b81548152906001019060200180831161028757829003601f168201915b505050505094508380546102b790610716565b80601f01602080910402602001604051908101604052809291908181526020018280546102e390610716565b80156103305780601f1061030557610100808354040283529160200191610330565b820191906000526020600020905b81548152906001019060200180831161031357829003601f168201915b5050505050935082805461034390610716565b80601f016020809104026020016040519081016040528092919081815260200182805461036f90610716565b80156103bc5780601f10610391576101008083540402835291602001916103bc565b820191906000526020600020905b81548152906001019060200180831161039f57829003601f168201915b50505050509250945094509450945094509091929394565b8280546103e090610716565b90600052602060002090601f0160209004810192826104025760008555610449565b82601f1061041b57803560ff1916838001178555610449565b82800160010185558215610449579182015b8281111561044857823582559160200191906001019061042d565b5b509050610456919061045a565b5090565b5b8082111561047357600081600090555060010161045b565b5090565b600081359050610486816107b1565b92915050565b60008083601f84011261049e57600080fd5b8235905067ffffffffffffffff8111156104b757600080fd5b6020830191508360018202830111156104cf57600080fd5b9250929050565b60008060008060008060008060a0898b0312156104f257600080fd5b60006105008b828c01610477565b985050602089013567ffffffffffffffff81111561051d57600080fd5b6105298b828c0161048c565b9750975050604089013567ffffffffffffffff81111561054857600080fd5b6105548b828c0161048c565b9550955050606089013567ffffffffffffffff81111561057357600080fd5b61057f8b828c0161048c565b935093505060806105928b828c01610477565b9150509295985092959890939650565b6105ab816106b1565b82525050565b60006105bc82610695565b6105c681856106a0565b93506105d68185602086016106e3565b6105df81610777565b840191505092915050565b60006105f7600e836106a0565b915061060282610788565b602082019050919050565b600060a082019050818103600083015261062781886105b1565b9050818103602083015261063b81876105b1565b9050818103604083015261064f81866105b1565b905061065e60608301856105a2565b61066b60808301846105a2565b9695505050505050565b6000602082019050818103600083015261068e816105ea565b9050919050565b600081519050919050565b600082825260208201905092915050565b60006106bc826106c3565b9050919050565b600073ffffffffffffffffffffffffffffffffffffffff82169050919050565b60005b838110156107015780820151818401526020810190506106e6565b83811115610710576000848401525b50505050565b6000600282049050600182168061072e57607f821691505b6020821081141561074257610741610748565b5b50919050565b7f4e487b7100000000000000000000000000000000000000000000000000000000600052602260045260246000fd5b6000601f19601f8301169050919050565b7f4253503a20464f5242494444454e000000000000000000000000000000000000600082015250565b6107ba816106b1565b81146107c557600080fd5b5056fea26469706673582212206ee4adadb76782547d57133a1aecd858bbe20f1fb45350dfd59f75136eab210964736f6c63430008030033608060405234801561001057600080fd5b50604051610830380380610830833981810160405281019061003291906100ce565b33600160006101000a81548173ffffffffffffffffffffffffffffffffffffffff021916908373ffffffffffffffffffffffffffffffffffffffff160217905550806000806101000a81548173ffffffffffffffffffffffffffffffffffffffff021916908373ffffffffffffffffffffffffffffffffffffffff16021790555050610140565b6000815190506100c881610129565b92915050565b6000602082840312156100e057600080fd5b60006100ee848285016100b9565b91505092915050565b600061010282610109565b9050919050565b600073ffffffffffffffffffffffffffffffffffffffff82169050919050565b610132816100f7565b811461013d57600080fd5b50565b6106e18061014f6000396000f3fe608060405234801561001057600080fd5b506004361061004c5760003560e01c80633081b570146100515780638188fa591461006d578063cc80f6f314610089578063d79813c4146100a7575b600080fd5b61006b600480360381019061006691906103db565b6100c5565b005b610087600480360381019061008291906103b2565b61012b565b005b6100916101e6565b60405161009e91906104dd565b60405180910390f35b6100af6101fd565b6040516100bc91906104bb565b60405180910390f35b6003819080600181540180825580915050600190039060005260206000200160009091909190916101000a81548173ffffffffffffffffffffffffffffffffffffffff021916908373ffffffffffffffffffffffffffffffffffffffff16021790555050565b600160009054906101000a900473ffffffffffffffffffffffffffffffffffffffff1673ffffffffffffffffffffffffffffffffffffffff163373ffffffffffffffffffffffffffffffffffffffff16146101bb576040517f08c379a00000000000000000000000000000000000000000000000000000000081526004016101b2906104f8565b60405180910390fd5b80600260006101000a8154816dffffffffffffffffffffffffffff021916908360901c021790555050565b6000600260009054906101000a900460901b905090565b606060038054905067ffffffffffffffff811115610244577f4e487b7100000000000000000000000000000000000000000000000000000000600052604160045260246000fd5b6040519080825280602002602001820160405280156102725781602001602082028036833780820191505090505b509050600080600090505b60038054905081101561038357600381815481106102c4577f4e487b7100000000000000000000000000000000000000000000000000000000600052603260045260246000fd5b9060005260206000200160009054906101000a900473ffffffffffffffffffffffffffffffffffffffff16838381518110610328577f4e487b7100000000000000000000000000000000000000000000000000000000600052603260045260246000fd5b602002602001019073ffffffffffffffffffffffffffffffffffffffff16908173ffffffffffffffffffffffffffffffffffffffff1681525050818061036d906105dc565b925050808061037b906105dc565b91505061027d565b505090565b6000813590506103978161067d565b92915050565b6000813590506103ac81610694565b92915050565b6000602082840312156103c457600080fd5b60006103d284828501610388565b91505092915050565b6000602082840312156103ed57600080fd5b60006103fb8482850161039d565b91505092915050565b6000610410838361041c565b60208301905092915050565b61042581610562565b82525050565b600061043682610528565b6104408185610540565b935061044b83610518565b8060005b8381101561047c5781516104638882610404565b975061046e83610533565b92505060018101905061044f565b5085935050505092915050565b61049281610574565b82525050565b60006104a5600e83610551565b91506104b082610654565b602082019050919050565b600060208201905081810360008301526104d5818461042b565b905092915050565b60006020820190506104f26000830184610489565b92915050565b6000602082019050818103600083015261051181610498565b9050919050565b6000819050602082019050919050565b600081519050919050565b6000602082019050919050565b600082825260208201905092915050565b600082825260208201905092915050565b600061056d826105b2565b9050919050565b60007fffffffffffffffffffffffffffff00000000000000000000000000000000000082169050919050565b60006105ab82610562565b9050919050565b600073ffffffffffffffffffffffffffffffffffffffff82169050919050565b6000819050919050565b60006105e7826105d2565b91507fffffffffffffffffffffffffffffffffffffffffffffffffffffffffffffffff82141561061a57610619610625565b5b600182019050919050565b7f4e487b7100000000000000000000000000000000000000000000000000000000600052601160045260246000fd5b7f4253503a20464f5242494444454e000000000000000000000000000000000000600082015250565b61068681610574565b811461069157600080fd5b50565b61069d816105a0565b81146106a857600080fd5b5056fea2646970667358221220f6127aacc9f287ba1b5a9d71ec828ae56a38984d364e33b4eea52297231ffc3d64736f6c63430008030033a2646970667358221220cd6708fa3e45ac79c5bfd1817d20a4aa9b55a32444f18ec731a4be3a8eb9636864736f6c63430008030033",
  "immutableReferences": {},
  "source": "// SPDX-License-Identifier: MIT\npragma solidity 0.8.3;\n\n// Import Ownable from the OpenZeppelin Contracts library\nimport \"./types/Building.sol\";\nimport \"./types/BuildingData.sol\";\n\n/// @title Building Data Factory\n/// @notice Responsible for tracking buildings and all types of data associated with each building\n/// @dev \n///     Controls the creation of child contracts (Building and BuildingData)\n///     Tracks all addresses of the contracts created by this factory contract\n///     Data model is: BuildingDataFactory ---[contains many]---> Building ---[contains many]---> BuildingData\n/// @author Sam Gamble\ncontract BuildingDataFactory {\n    address owner; // TODO: use OpenZeppelin IOwnable\n\n    // Data tracking\n    address[] allBuildings; // track all Building contract instances\n    address[] allBuildingData; // track all BuildingData contract instances\n    mapping(bytes14 => address) buildingByUPRN; // map UPRN to the address of the associated Building contract instance.\n    mapping(string => address) buildingDataByDocHash; // map document hash to the BuildingData a contract address\n    \n    // Events\n    event SurveyRegistered(address buildingContractAddress, string documentHash, string docType, string timestamp, address originator);\n\n    // Constructor\n    constructor(address admin) {\n        owner = admin;\n    }\n\n    /// @notice Determines if a building is registered in this factory contract\n    /// @param uprn The UPRN to check\n    /// @return bool indicating whether the given UPRN is already registered on chain\n    function isBuildingRegistered(bytes14 uprn) public view returns (bool) {\n        return (buildingByUPRN[uprn] != address(0));\n    }\n\n    /// @notice Finds the address of the Building contract instance that corresponds with the given UPRN\n    /// @param uprn The UPRN to find the corresponding Building contract for\n    /// @return The address of the Building contract associated with the given UPRN\n    function buildingAddress(bytes14 uprn) public view returns (address) {\n        return buildingByUPRN[uprn];\n    }\n\n    /// @notice Finds the address of the BuildingDate contract instance that corresponds with the given document hash\n    /// @param documentHash The SHA256 hash of the document to find\n    /// @return The address of the BuildingDate contract\n    function buildingDataAddressByHash(string calldata documentHash) public view returns (address) {\n        return buildingDataByDocHash[documentHash];   \n    }\n\n    /// @notice Looks up the Building contract for a given UPRN. If the UPRN is not currently registered, a new Building contract is registered for the UPRN.\n    /// @param uprn The UPRN of the building to find\n    /// @return The address of the Building contract associated with the given UPRN\n    function findOrCreateBuilding(bytes14 uprn) public returns (address) {\n        // check if a Building contract exists with the same UPRN\n        if(!isBuildingRegistered(uprn)) {\n            // no Building match, so create a new Building contract \n            // and register the building in the tracking lists\n            Building building = new Building(owner);\n            building.initialize(uprn);\n            buildingByUPRN[uprn] = address(building);\n            allBuildings.push(address(building));\n        }\n\n        return buildingByUPRN[uprn];        \n    }\n\n    /// @notice Counts all the registered buildings\n    /// @return The number of buildings registered\n    function countOfBuildings() external view returns (uint) {\n        return allBuildings.length;\n    }\n\n    /// @notice Finds all of the buildings registered with this factory\n    /// @return _buildings All the on chain addresses of the registered building contracts\n    function getAllBuildings() external view returns (address[] memory _buildings) {\n       _buildings = new address[](allBuildings.length);\n       uint count;\n       for (uint i=0; i < allBuildings.length; i++) {\n            _buildings[count] = allBuildings[i];\n            count++;\n        }\n    }  \n\n    /// @notice Finds all of the building data registered with this factory\n    /// @return _buildingData All the on chain addresses of the registered building data contracts\n    function getAllBuildingData() external view returns (address[] memory _buildingData) {\n       _buildingData = new address[](allBuildingData.length);\n       uint count;\n       for (uint i=0; i < allBuildingData.length; i++) {\n            _buildingData[count] = allBuildingData[i];\n            count++;\n        }\n    }  \n\n    /// @notice Tracks a element of building data against a building\n    /// @return The address of the BuildingData contract created\n    function trackBuildingData(bytes14 uprn, string calldata documentHash, string calldata docType, string calldata timestamp) public returns (address){\n        // find or create the building \n        address buildingContractAddress = findOrCreateBuilding(uprn);        \n        Building building = Building(buildingContractAddress);\n        address originator = msg.sender;\n\n        if ( buildingDataByDocHash[documentHash] != address(0) ) {\n            // doc hash already registered, return address of corresponding building data contract instance\n            return buildingDataByDocHash[documentHash];\n        } else {\n            // doc hash never registered before, so create a new BuildingData contract\n            BuildingData buildingData = new BuildingData(owner);\n            buildingData.initialize(buildingContractAddress, documentHash, docType, timestamp, originator);\n\n            // register the BuildingData in the Building contracxt\n            building.addBuildingData(buildingData); // track by building\n\n            address buildDataContractAddress = address(buildingData);\n            allBuildingData.push(buildDataContractAddress); // track all BuildingData contracts ever created\n            buildingDataByDocHash[documentHash] = buildDataContractAddress;\n\n            emit SurveyRegistered(buildingContractAddress, documentHash, docType, timestamp, originator);\n\n            return buildDataContractAddress;\n        }\n    }\n\n}\n",
  "sourcePath": "/Users/samg/repos/automated-markets/bsp-protocol/contracts/BuildingDataFactory.sol",
  "compiler": {
    "name": "solc",
    "version": "0.8.3+commit.8d00100c.Emscripten.clang"
  },
  "schemaVersion": "3.3.4",
  "updatedAt": "2021-06-01T12:15:14.957Z",
  "networkType": "ethereum",
  "devdoc": {
    "author": "Sam Gamble",
    "details": "     Controls the creation of child contracts (Building and BuildingData)     Tracks all addresses of the contracts created by this factory contract     Data model is: BuildingDataFactory ---[contains many]---> Building ---[contains many]---> BuildingData",
    "kind": "dev",
    "methods": {
      "buildingAddress(bytes14)": {
        "params": {
          "uprn": "The UPRN to find the corresponding Building contract for"
        },
        "returns": {
          "_0": "The address of the Building contract associated with the given UPRN"
        }
      },
      "buildingDataAddressByHash(string)": {
        "params": {
          "documentHash": "The SHA256 hash of the document to find"
        },
        "returns": {
          "_0": "The address of the BuildingDate contract"
        }
      },
      "countOfBuildings()": {
        "returns": {
          "_0": "The number of buildings registered"
        }
      },
      "findOrCreateBuilding(bytes14)": {
        "params": {
          "uprn": "The UPRN of the building to find"
        },
        "returns": {
          "_0": "The address of the Building contract associated with the given UPRN"
        }
      },
      "getAllBuildingData()": {
        "returns": {
          "_buildingData": "All the on chain addresses of the registered building data contracts"
        }
      },
      "getAllBuildings()": {
        "returns": {
          "_buildings": "All the on chain addresses of the registered building contracts"
        }
      },
      "isBuildingRegistered(bytes14)": {
        "params": {
          "uprn": "The UPRN to check"
        },
        "returns": {
          "_0": "bool indicating whether the given UPRN is already registered on chain"
        }
      },
      "trackBuildingData(bytes14,string,string,string)": {
        "returns": {
          "_0": "The address of the BuildingData contract created"
        }
      }
    },
    "title": "Building Data Factory",
    "version": 1
  },
  "userdoc": {
    "kind": "user",
    "methods": {
      "buildingAddress(bytes14)": {
        "notice": "Finds the address of the Building contract instance that corresponds with the given UPRN"
      },
      "buildingDataAddressByHash(string)": {
        "notice": "Finds the address of the BuildingDate contract instance that corresponds with the given document hash"
      },
      "countOfBuildings()": {
        "notice": "Counts all the registered buildings"
      },
      "findOrCreateBuilding(bytes14)": {
        "notice": "Looks up the Building contract for a given UPRN. If the UPRN is not currently registered, a new Building contract is registered for the UPRN."
      },
      "getAllBuildingData()": {
        "notice": "Finds all of the building data registered with this factory"
      },
      "getAllBuildings()": {
        "notice": "Finds all of the buildings registered with this factory"
      },
      "isBuildingRegistered(bytes14)": {
        "notice": "Determines if a building is registered in this factory contract"
      },
      "trackBuildingData(bytes14,string,string,string)": {
        "notice": "Tracks a element of building data against a building"
      }
    },
    "notice": "Responsible for tracking buildings and all types of data associated with each building",
    "version": 1
  }
}