{
  "contractName": "BuildingData",
  "abi": [
    {
      "inputs": [
        {
          "internalType": "address",
          "name": "admin",
          "type": "address"
        }
      ],
      "stateMutability": "nonpayable",
      "type": "constructor"
    },
    {
      "inputs": [
        {
          "internalType": "address",
          "name": "_building",
          "type": "address"
        },
        {
          "internalType": "string",
          "name": "_docHash",
          "type": "string"
        },
        {
          "internalType": "string",
          "name": "_docType",
          "type": "string"
        },
        {
          "internalType": "string",
          "name": "_timestamp",
          "type": "string"
        },
        {
          "internalType": "address",
          "name": "_originator",
          "type": "address"
        }
      ],
      "name": "initialize",
      "outputs": [],
      "stateMutability": "nonpayable",
      "type": "function"
    },
    {
      "inputs": [],
      "name": "show",
      "outputs": [
        {
          "internalType": "string",
          "name": "",
          "type": "string"
        },
        {
          "internalType": "string",
          "name": "",
          "type": "string"
        },
        {
          "internalType": "string",
          "name": "",
          "type": "string"
        },
        {
          "internalType": "address",
          "name": "",
          "type": "address"
        },
        {
          "internalType": "address",
          "name": "",
          "type": "address"
        }
      ],
      "stateMutability": "view",
      "type": "function"
    }
  ],
  "bytecode": "0x608060405234801561001057600080fd5b5060405161094d38038061094d833981810160405281019061003291906100ce565b33600160006101000a81548173ffffffffffffffffffffffffffffffffffffffff021916908373ffffffffffffffffffffffffffffffffffffffff160217905550806000806101000a81548173ffffffffffffffffffffffffffffffffffffffff021916908373ffffffffffffffffffffffffffffffffffffffff16021790555050610140565b6000815190506100c881610129565b92915050565b6000602082840312156100e057600080fd5b60006100ee848285016100b9565b91505092915050565b600061010282610109565b9050919050565b600073ffffffffffffffffffffffffffffffffffffffff82169050919050565b610132816100f7565b811461013d57600080fd5b50565b6107fe8061014f6000396000f3fe608060405234801561001057600080fd5b50600436106100365760003560e01c806308277dda1461003b578063cc80f6f314610057575b600080fd5b610055600480360381019061005091906104d6565b610079565b005b61005f6101cb565b60405161007095949392919061060d565b60405180910390f35b600160009054906101000a900473ffffffffffffffffffffffffffffffffffffffff1673ffffffffffffffffffffffffffffffffffffffff163373ffffffffffffffffffffffffffffffffffffffff1614610109576040517f08c379a000000000000000000000000000000000000000000000000000000000815260040161010090610675565b60405180910390fd5b87600660006101000a81548173ffffffffffffffffffffffffffffffffffffffff021916908373ffffffffffffffffffffffffffffffffffffffff16021790555084846003919061015b9291906103d4565b5086866004919061016d9291906103d4565b5080600260006101000a81548173ffffffffffffffffffffffffffffffffffffffff021916908373ffffffffffffffffffffffffffffffffffffffff1602179055508282600591906101c09291906103d4565b505050505050505050565b6060806060600080600460036005600260009054906101000a900473ffffffffffffffffffffffffffffffffffffffff16600660009054906101000a900473ffffffffffffffffffffffffffffffffffffffff1684805461022b90610716565b80601f016020809104026020016040519081016040528092919081815260200182805461025790610716565b80156102a45780601f10610279576101008083540402835291602001916102a4565b820191906000526020600020905b81548152906001019060200180831161028757829003601f168201915b505050505094508380546102b790610716565b80601f01602080910402602001604051908101604052809291908181526020018280546102e390610716565b80156103305780601f1061030557610100808354040283529160200191610330565b820191906000526020600020905b81548152906001019060200180831161031357829003601f168201915b5050505050935082805461034390610716565b80601f016020809104026020016040519081016040528092919081815260200182805461036f90610716565b80156103bc5780601f10610391576101008083540402835291602001916103bc565b820191906000526020600020905b81548152906001019060200180831161039f57829003601f168201915b50505050509250945094509450945094509091929394565b8280546103e090610716565b90600052602060002090601f0160209004810192826104025760008555610449565b82601f1061041b57803560ff1916838001178555610449565b82800160010185558215610449579182015b8281111561044857823582559160200191906001019061042d565b5b509050610456919061045a565b5090565b5b8082111561047357600081600090555060010161045b565b5090565b600081359050610486816107b1565b92915050565b60008083601f84011261049e57600080fd5b8235905067ffffffffffffffff8111156104b757600080fd5b6020830191508360018202830111156104cf57600080fd5b9250929050565b60008060008060008060008060a0898b0312156104f257600080fd5b60006105008b828c01610477565b985050602089013567ffffffffffffffff81111561051d57600080fd5b6105298b828c0161048c565b9750975050604089013567ffffffffffffffff81111561054857600080fd5b6105548b828c0161048c565b9550955050606089013567ffffffffffffffff81111561057357600080fd5b61057f8b828c0161048c565b935093505060806105928b828c01610477565b9150509295985092959890939650565b6105ab816106b1565b82525050565b60006105bc82610695565b6105c681856106a0565b93506105d68185602086016106e3565b6105df81610777565b840191505092915050565b60006105f7600e836106a0565b915061060282610788565b602082019050919050565b600060a082019050818103600083015261062781886105b1565b9050818103602083015261063b81876105b1565b9050818103604083015261064f81866105b1565b905061065e60608301856105a2565b61066b60808301846105a2565b9695505050505050565b6000602082019050818103600083015261068e816105ea565b9050919050565b600081519050919050565b600082825260208201905092915050565b60006106bc826106c3565b9050919050565b600073ffffffffffffffffffffffffffffffffffffffff82169050919050565b60005b838110156107015780820151818401526020810190506106e6565b83811115610710576000848401525b50505050565b6000600282049050600182168061072e57607f821691505b6020821081141561074257610741610748565b5b50919050565b7f4e487b7100000000000000000000000000000000000000000000000000000000600052602260045260246000fd5b6000601f19601f8301169050919050565b7f4253503a20464f5242494444454e000000000000000000000000000000000000600082015250565b6107ba816106b1565b81146107c557600080fd5b5056fea26469706673582212206ee4adadb76782547d57133a1aecd858bbe20f1fb45350dfd59f75136eab210964736f6c63430008030033",
  "immutableReferences": {},
  "source": "// SPDX-License-Identifier: MIT\npragma solidity 0.8.3;\n\ncontract BuildingData {\n    address owner; // TODO: use OpenZeppelin IOwnable\n    address factory;\n    address originator; // who provided the data\n    string docType; // e.g. EWS, EWS1, HHSRS, Planning Application, S106 Agreement, Section 235 notices etc...\n    string docHash;\n    string timestamp;\n    address buildingContract;\n\n    constructor(address admin) {\n        factory = msg.sender;\n        owner = admin;\n    }\n\n    // called once by the factory at time of deployment\n    function initialize(address _building, string calldata _docHash, string calldata _docType, string calldata _timestamp, address _originator) external {\n        require(msg.sender == factory, 'BSP: FORBIDDEN'); // sufficient check\n        buildingContract = _building;\n        docType = _docType;\n        docHash = _docHash;\n        originator = _originator;\n        timestamp = _timestamp;\n    }\n\n    // reads all of the building data fields\n    function show() external view returns (string memory, string memory, string memory, address, address) {\n        return (docHash, docType, timestamp, originator, buildingContract);\n    }\n}\n",
  "sourcePath": "/Users/samg/repos/automated-markets/bsp-protocol/contracts/types/BuildingData.sol",
  "compiler": {
    "name": "solc",
    "version": "0.8.3+commit.8d00100c.Emscripten.clang"
  },
  "schemaVersion": "3.3.4",
  "updatedAt": "2021-05-10T11:28:20.578Z",
  "devdoc": {
    "kind": "dev",
    "methods": {},
    "version": 1
  },
  "userdoc": {
    "kind": "user",
    "methods": {},
    "version": 1
  }
}