{
  "contractName": "Building",
  "abi": [
    {
      "inputs": [
        {
          "internalType": "address",
          "name": "admin",
          "type": "address"
        }
      ],
      "stateMutability": "nonpayable",
      "type": "constructor"
    },
    {
      "inputs": [
        {
          "internalType": "bytes14",
          "name": "_uprn",
          "type": "bytes14"
        }
      ],
      "name": "initialize",
      "outputs": [],
      "stateMutability": "nonpayable",
      "type": "function"
    },
    {
      "inputs": [
        {
          "internalType": "contract BuildingData",
          "name": "_buildingData",
          "type": "address"
        }
      ],
      "name": "addBuildingData",
      "outputs": [],
      "stateMutability": "nonpayable",
      "type": "function"
    },
    {
      "inputs": [],
      "name": "getAllBuildingData",
      "outputs": [
        {
          "internalType": "address[]",
          "name": "_buildingData",
          "type": "address[]"
        }
      ],
      "stateMutability": "view",
      "type": "function"
    },
    {
      "inputs": [],
      "name": "show",
      "outputs": [
        {
          "internalType": "bytes14",
          "name": "",
          "type": "bytes14"
        }
      ],
      "stateMutability": "view",
      "type": "function"
    }
  ],
  "bytecode": "0x608060405234801561001057600080fd5b50604051610830380380610830833981810160405281019061003291906100ce565b33600160006101000a81548173ffffffffffffffffffffffffffffffffffffffff021916908373ffffffffffffffffffffffffffffffffffffffff160217905550806000806101000a81548173ffffffffffffffffffffffffffffffffffffffff021916908373ffffffffffffffffffffffffffffffffffffffff16021790555050610140565b6000815190506100c881610129565b92915050565b6000602082840312156100e057600080fd5b60006100ee848285016100b9565b91505092915050565b600061010282610109565b9050919050565b600073ffffffffffffffffffffffffffffffffffffffff82169050919050565b610132816100f7565b811461013d57600080fd5b50565b6106e18061014f6000396000f3fe608060405234801561001057600080fd5b506004361061004c5760003560e01c80633081b570146100515780638188fa591461006d578063cc80f6f314610089578063d79813c4146100a7575b600080fd5b61006b600480360381019061006691906103db565b6100c5565b005b610087600480360381019061008291906103b2565b61012b565b005b6100916101e6565b60405161009e91906104dd565b60405180910390f35b6100af6101fd565b6040516100bc91906104bb565b60405180910390f35b6003819080600181540180825580915050600190039060005260206000200160009091909190916101000a81548173ffffffffffffffffffffffffffffffffffffffff021916908373ffffffffffffffffffffffffffffffffffffffff16021790555050565b600160009054906101000a900473ffffffffffffffffffffffffffffffffffffffff1673ffffffffffffffffffffffffffffffffffffffff163373ffffffffffffffffffffffffffffffffffffffff16146101bb576040517f08c379a00000000000000000000000000000000000000000000000000000000081526004016101b2906104f8565b60405180910390fd5b80600260006101000a8154816dffffffffffffffffffffffffffff021916908360901c021790555050565b6000600260009054906101000a900460901b905090565b606060038054905067ffffffffffffffff811115610244577f4e487b7100000000000000000000000000000000000000000000000000000000600052604160045260246000fd5b6040519080825280602002602001820160405280156102725781602001602082028036833780820191505090505b509050600080600090505b60038054905081101561038357600381815481106102c4577f4e487b7100000000000000000000000000000000000000000000000000000000600052603260045260246000fd5b9060005260206000200160009054906101000a900473ffffffffffffffffffffffffffffffffffffffff16838381518110610328577f4e487b7100000000000000000000000000000000000000000000000000000000600052603260045260246000fd5b602002602001019073ffffffffffffffffffffffffffffffffffffffff16908173ffffffffffffffffffffffffffffffffffffffff1681525050818061036d906105dc565b925050808061037b906105dc565b91505061027d565b505090565b6000813590506103978161067d565b92915050565b6000813590506103ac81610694565b92915050565b6000602082840312156103c457600080fd5b60006103d284828501610388565b91505092915050565b6000602082840312156103ed57600080fd5b60006103fb8482850161039d565b91505092915050565b6000610410838361041c565b60208301905092915050565b61042581610562565b82525050565b600061043682610528565b6104408185610540565b935061044b83610518565b8060005b8381101561047c5781516104638882610404565b975061046e83610533565b92505060018101905061044f565b5085935050505092915050565b61049281610574565b82525050565b60006104a5600e83610551565b91506104b082610654565b602082019050919050565b600060208201905081810360008301526104d5818461042b565b905092915050565b60006020820190506104f26000830184610489565b92915050565b6000602082019050818103600083015261051181610498565b9050919050565b6000819050602082019050919050565b600081519050919050565b6000602082019050919050565b600082825260208201905092915050565b600082825260208201905092915050565b600061056d826105b2565b9050919050565b60007fffffffffffffffffffffffffffff00000000000000000000000000000000000082169050919050565b60006105ab82610562565b9050919050565b600073ffffffffffffffffffffffffffffffffffffffff82169050919050565b6000819050919050565b60006105e7826105d2565b91507fffffffffffffffffffffffffffffffffffffffffffffffffffffffffffffffff82141561061a57610619610625565b5b600182019050919050565b7f4e487b7100000000000000000000000000000000000000000000000000000000600052601160045260246000fd5b7f4253503a20464f5242494444454e000000000000000000000000000000000000600082015250565b61068681610574565b811461069157600080fd5b50565b61069d816105a0565b81146106a857600080fd5b5056fea2646970667358221220dd792ad26e7942edfb9deb100e8b375bddca954d5894ae969fc6fd04835da56464736f6c63430008030033",
  "immutableReferences": {},
  "source": "// SPDX-License-Identifier: MIT\npragma solidity 0.8.3;\n\nimport \"./BuildingData.sol\";\n\ncontract Building {\n    address owner; // TODO: use OpenZeppelin IOwnable\n    address factory;\n    bytes14 uprn;\n    address[] allBuildingData;\n\n    constructor(address admin) {\n        factory = msg.sender;\n        owner = admin;\n    }\n\n    // called once by the factory at time of deployment\n    function initialize(bytes14 _uprn) external {\n        require(msg.sender == factory, 'BSP: FORBIDDEN'); // sufficient check\n        uprn = _uprn;\n    }\n\n    function addBuildingData(BuildingData _buildingData) external {\n        allBuildingData.push(address(_buildingData));\n    }\n\n    /// @notice Retrieves all the building data registered with this building\n    /// @return _buildingData All the on chain addresses of the registered BuildingData contracts associated with this building\n    function getAllBuildingData() external view returns (address[] memory _buildingData) {\n       _buildingData = new address[](allBuildingData.length);\n       uint count;\n       for (uint i=0; i < allBuildingData.length; i++) {\n            _buildingData[count] = allBuildingData[i];\n            count++;\n        }\n    }  \n\n    /// @notice Reads all of the building  fields\n    /// @return UPRN\n    function show() external view returns (bytes14) {\n        return uprn;\n    }\n}",
  "sourcePath": "/Users/samg/repos/automated-markets/bsp-protocol/contracts/types/Building.sol",
  "compiler": {
    "name": "solc",
    "version": "0.8.3+commit.8d00100c.Emscripten.clang"
  },
  "schemaVersion": "3.3.4",
  "updatedAt": "2021-05-05T00:25:15.721Z",
  "devdoc": {
    "kind": "dev",
    "methods": {
      "getAllBuildingData()": {
        "returns": {
          "_buildingData": "All the on chain addresses of the registered BuildingData contracts associated with this building"
        }
      },
      "show()": {
        "returns": {
          "_0": "UPRN"
        }
      }
    },
    "version": 1
  },
  "userdoc": {
    "kind": "user",
    "methods": {
      "getAllBuildingData()": {
        "notice": "Retrieves all the building data registered with this building"
      },
      "show()": {
        "notice": "Reads all of the building  fields"
      }
    },
    "version": 1
  }
}