{
  "contractName": "BuildingDataFactory",
  "abi": [
    {
      "inputs": [
        {
          "internalType": "address",
          "name": "admin",
          "type": "address"
        }
      ],
      "stateMutability": "nonpayable",
      "type": "constructor"
    },
    {
      "inputs": [
        {
          "internalType": "bytes14",
          "name": "uprn",
          "type": "bytes14"
        }
      ],
      "name": "isBuildingRegistered",
      "outputs": [
        {
          "internalType": "bool",
          "name": "",
          "type": "bool"
        }
      ],
      "stateMutability": "view",
      "type": "function",
      "constant": true
    },
    {
      "inputs": [
        {
          "internalType": "bytes14",
          "name": "uprn",
          "type": "bytes14"
        }
      ],
      "name": "buildingAddress",
      "outputs": [
        {
          "internalType": "address",
          "name": "",
          "type": "address"
        }
      ],
      "stateMutability": "view",
      "type": "function",
      "constant": true
    },
    {
      "inputs": [
        {
          "internalType": "string",
          "name": "documentHash",
          "type": "string"
        }
      ],
      "name": "buildingDataAddressByHash",
      "outputs": [
        {
          "internalType": "address",
          "name": "",
          "type": "address"
        }
      ],
      "stateMutability": "view",
      "type": "function",
      "constant": true
    },
    {
      "inputs": [
        {
          "internalType": "bytes14",
          "name": "uprn",
          "type": "bytes14"
        }
      ],
      "name": "findOrCreateBuilding",
      "outputs": [
        {
          "internalType": "address",
          "name": "",
          "type": "address"
        }
      ],
      "stateMutability": "nonpayable",
      "type": "function"
    },
    {
      "inputs": [],
      "name": "countOfBuildings",
      "outputs": [
        {
          "internalType": "uint256",
          "name": "",
          "type": "uint256"
        }
      ],
      "stateMutability": "view",
      "type": "function",
      "constant": true
    },
    {
      "inputs": [],
      "name": "getAllBuildings",
      "outputs": [
        {
          "internalType": "address[]",
          "name": "_buildings",
          "type": "address[]"
        }
      ],
      "stateMutability": "view",
      "type": "function",
      "constant": true
    },
    {
      "inputs": [],
      "name": "getAllBuildingData",
      "outputs": [
        {
          "internalType": "address[]",
          "name": "_buildingData",
          "type": "address[]"
        }
      ],
      "stateMutability": "view",
      "type": "function",
      "constant": true
    },
    {
      "inputs": [
        {
          "internalType": "bytes14",
          "name": "uprn",
          "type": "bytes14"
        },
        {
          "internalType": "string",
          "name": "documentHash",
          "type": "string"
        },
        {
          "internalType": "string",
          "name": "docType",
          "type": "string"
        }
      ],
      "name": "trackBuildingData",
      "outputs": [
        {
          "internalType": "address",
          "name": "",
          "type": "address"
        }
      ],
      "stateMutability": "nonpayable",
      "type": "function"
    }
  ],
  "bytecode": "0x60806040523480156200001157600080fd5b50604051620022d0380380620022d0833981810160405281019062000037919062000095565b806000806101000a81548173ffffffffffffffffffffffffffffffffffffffff021916908373ffffffffffffffffffffffffffffffffffffffff160217905550506200010f565b6000815190506200008f81620000f5565b92915050565b600060208284031215620000a857600080fd5b6000620000b8848285016200007e565b91505092915050565b6000620000ce82620000d5565b9050919050565b600073ffffffffffffffffffffffffffffffffffffffff82169050919050565b6200010081620000c1565b81146200010c57600080fd5b50565b6121b1806200011f6000396000f3fe60806040523480156200001157600080fd5b5060043610620000945760003560e01c8063c1fc99f31162000063578063c1fc99f31462000149578063d79813c4146200017f578063db894e2514620001a1578063e7d7889e14620001d75762000094565b8063378fda2714620000995780639f58288c14620000bb578063a47b3d6014620000dd578063b6de83731462000113575b600080fd5b620000a36200020d565b604051620000b2919062000f79565b60405180910390f35b620000c56200021a565b604051620000d4919062000efe565b60405180910390f35b620000fb6004803603810190620000f5919062000c2a565b620003af565b6040516200010a919062000f22565b60405180910390f35b6200013160048036038101906200012b919062000c2a565b62000445565b60405162000140919062000e92565b60405180910390f35b62000167600480360381019062000161919062000c56565b6200066a565b60405162000176919062000e92565b60405180910390f35b6200018962000961565b60405162000198919062000efe565b60405180910390f35b620001bf6004803603810190620001b9919062000ce8565b62000af6565b604051620001ce919062000e92565b60405180910390f35b620001f56004803603810190620001ef919062000c2a565b62000b43565b60405162000204919062000e92565b60405180910390f35b6000600180549050905090565b606060018054905067ffffffffffffffff81111562000262577f4e487b7100000000000000000000000000000000000000000000000000000000600052604160045260246000fd5b604051908082528060200260200182016040528015620002915781602001602082028036833780820191505090505b509050600080600090505b600180549050811015620003aa5760018181548110620002e5577f4e487b7100000000000000000000000000000000000000000000000000000000600052603260045260246000fd5b9060005260206000200160009054906101000a900473ffffffffffffffffffffffffffffffffffffffff168383815181106200034a577f4e487b7100000000000000000000000000000000000000000000000000000000600052603260045260246000fd5b602002602001019073ffffffffffffffffffffffffffffffffffffffff16908173ffffffffffffffffffffffffffffffffffffffff16815250508180620003919062001098565b9250508080620003a19062001098565b9150506200029c565b505090565b60008073ffffffffffffffffffffffffffffffffffffffff16600360008471ffffffffffffffffffffffffffffffffffff191671ffffffffffffffffffffffffffffffffffff1916815260200190815260200160002060009054906101000a900473ffffffffffffffffffffffffffffffffffffffff1673ffffffffffffffffffffffffffffffffffffffff1614159050919050565b60006200045282620003af565b620006055760008060009054906101000a900473ffffffffffffffffffffffffffffffffffffffff16604051620004899062000baa565b62000495919062000e92565b604051809103906000f080158015620004b2573d6000803e3d6000fd5b5090508073ffffffffffffffffffffffffffffffffffffffff16638188fa59846040518263ffffffff1660e01b8152600401620004f0919062000f3f565b600060405180830381600087803b1580156200050b57600080fd5b505af115801562000520573d6000803e3d6000fd5b5050505080600360008571ffffffffffffffffffffffffffffffffffff191671ffffffffffffffffffffffffffffffffffff1916815260200190815260200160002060006101000a81548173ffffffffffffffffffffffffffffffffffffffff021916908373ffffffffffffffffffffffffffffffffffffffff1602179055506001819080600181540180825580915050600190039060005260206000200160009091909190916101000a81548173ffffffffffffffffffffffffffffffffffffffff021916908373ffffffffffffffffffffffffffffffffffffffff160217905550505b600360008371ffffffffffffffffffffffffffffffffffff191671ffffffffffffffffffffffffffffffffffff1916815260200190815260200160002060009054906101000a900473ffffffffffffffffffffffffffffffffffffffff169050919050565b600080620006788762000445565b90506000819050600073ffffffffffffffffffffffffffffffffffffffff1660048888604051620006ab92919062000e77565b908152602001604051809103902060009054906101000a900473ffffffffffffffffffffffffffffffffffffffff1673ffffffffffffffffffffffffffffffffffffffff16146200074357600487876040516200070a92919062000e77565b908152602001604051809103902060009054906101000a900473ffffffffffffffffffffffffffffffffffffffff169250505062000958565b60008060009054906101000a900473ffffffffffffffffffffffffffffffffffffffff16604051620007759062000bb8565b62000781919062000e92565b604051809103906000f0801580156200079e573d6000803e3d6000fd5b5090508073ffffffffffffffffffffffffffffffffffffffff166390657147848a8a8a8a6040518663ffffffff1660e01b8152600401620007e495949392919062000eaf565b600060405180830381600087803b158015620007ff57600080fd5b505af115801562000814573d6000803e3d6000fd5b505050508173ffffffffffffffffffffffffffffffffffffffff16633081b570826040518263ffffffff1660e01b815260040162000853919062000f5c565b600060405180830381600087803b1580156200086e57600080fd5b505af115801562000883573d6000803e3d6000fd5b5050505060008190506002819080600181540180825580915050600190039060005260206000200160009091909190916101000a81548173ffffffffffffffffffffffffffffffffffffffff021916908373ffffffffffffffffffffffffffffffffffffffff1602179055508060048a8a6040516200090492919062000e77565b908152602001604051809103902060006101000a81548173ffffffffffffffffffffffffffffffffffffffff021916908373ffffffffffffffffffffffffffffffffffffffff160217905550809450505050505b95945050505050565b606060028054905067ffffffffffffffff811115620009a9577f4e487b7100000000000000000000000000000000000000000000000000000000600052604160045260246000fd5b604051908082528060200260200182016040528015620009d85781602001602082028036833780820191505090505b509050600080600090505b60028054905081101562000af1576002818154811062000a2c577f4e487b7100000000000000000000000000000000000000000000000000000000600052603260045260246000fd5b9060005260206000200160009054906101000a900473ffffffffffffffffffffffffffffffffffffffff1683838151811062000a91577f4e487b7100000000000000000000000000000000000000000000000000000000600052603260045260246000fd5b602002602001019073ffffffffffffffffffffffffffffffffffffffff16908173ffffffffffffffffffffffffffffffffffffffff1681525050818062000ad89062001098565b925050808062000ae89062001098565b915050620009e3565b505090565b60006004838360405162000b0c92919062000e77565b908152602001604051809103902060009054906101000a900473ffffffffffffffffffffffffffffffffffffffff16905092915050565b6000600360008371ffffffffffffffffffffffffffffffffffff191671ffffffffffffffffffffffffffffffffffff1916815260200190815260200160002060009054906101000a900473ffffffffffffffffffffffffffffffffffffffff169050919050565b610830806200114183390190565b61080b806200197183390190565b60008135905062000bd78162001126565b92915050565b60008083601f84011262000bf057600080fd5b8235905067ffffffffffffffff81111562000c0a57600080fd5b60208301915083600182028301111562000c2357600080fd5b9250929050565b60006020828403121562000c3d57600080fd5b600062000c4d8482850162000bc6565b91505092915050565b60008060008060006060868803121562000c6f57600080fd5b600062000c7f8882890162000bc6565b955050602086013567ffffffffffffffff81111562000c9d57600080fd5b62000cab8882890162000bdd565b9450945050604086013567ffffffffffffffff81111562000ccb57600080fd5b62000cd98882890162000bdd565b92509250509295509295909350565b6000806020838503121562000cfc57600080fd5b600083013567ffffffffffffffff81111562000d1757600080fd5b62000d258582860162000bdd565b92509250509250929050565b600062000d3f838362000d4b565b60208301905092915050565b62000d568162000feb565b82525050565b62000d678162000feb565b82525050565b600062000d7a8262000fa6565b62000d86818562000fbe565b935062000d938362000f96565b8060005b8381101562000dca57815162000dae888262000d31565b975062000dbb8362000fb1565b92505060018101905062000d97565b5085935050505092915050565b62000de28162000fff565b82525050565b62000df3816200100b565b82525050565b62000e048162001061565b82525050565b600062000e18838562000fcf565b935062000e2783858462001089565b62000e328362001115565b840190509392505050565b600062000e4b838562000fe0565b935062000e5a83858462001089565b82840190509392505050565b62000e718162001057565b82525050565b600062000e8682848662000e3d565b91508190509392505050565b600060208201905062000ea9600083018462000d5c565b92915050565b600060608201905062000ec6600083018862000d5c565b818103602083015262000edb81868862000e0a565b9050818103604083015262000ef281848662000e0a565b90509695505050505050565b6000602082019050818103600083015262000f1a818462000d6d565b905092915050565b600060208201905062000f39600083018462000dd7565b92915050565b600060208201905062000f56600083018462000de8565b92915050565b600060208201905062000f73600083018462000df9565b92915050565b600060208201905062000f90600083018462000e66565b92915050565b6000819050602082019050919050565b600081519050919050565b6000602082019050919050565b600082825260208201905092915050565b600082825260208201905092915050565b600081905092915050565b600062000ff88262001037565b9050919050565b60008115159050919050565b60007fffffffffffffffffffffffffffff00000000000000000000000000000000000082169050919050565b600073ffffffffffffffffffffffffffffffffffffffff82169050919050565b6000819050919050565b60006200106e8262001075565b9050919050565b6000620010828262001037565b9050919050565b82818337600083830152505050565b6000620010a58262001057565b91507fffffffffffffffffffffffffffffffffffffffffffffffffffffffffffffffff821415620010db57620010da620010e6565b5b600182019050919050565b7f4e487b7100000000000000000000000000000000000000000000000000000000600052601160045260246000fd5b6000601f19601f8301169050919050565b62001131816200100b565b81146200113d57600080fd5b5056fe608060405234801561001057600080fd5b50604051610830380380610830833981810160405281019061003291906100ce565b33600160006101000a81548173ffffffffffffffffffffffffffffffffffffffff021916908373ffffffffffffffffffffffffffffffffffffffff160217905550806000806101000a81548173ffffffffffffffffffffffffffffffffffffffff021916908373ffffffffffffffffffffffffffffffffffffffff16021790555050610140565b6000815190506100c881610129565b92915050565b6000602082840312156100e057600080fd5b60006100ee848285016100b9565b91505092915050565b600061010282610109565b9050919050565b600073ffffffffffffffffffffffffffffffffffffffff82169050919050565b610132816100f7565b811461013d57600080fd5b50565b6106e18061014f6000396000f3fe608060405234801561001057600080fd5b506004361061004c5760003560e01c80633081b570146100515780638188fa591461006d578063cc80f6f314610089578063d79813c4146100a7575b600080fd5b61006b600480360381019061006691906103db565b6100c5565b005b610087600480360381019061008291906103b2565b61012b565b005b6100916101e6565b60405161009e91906104dd565b60405180910390f35b6100af6101fd565b6040516100bc91906104bb565b60405180910390f35b6003819080600181540180825580915050600190039060005260206000200160009091909190916101000a81548173ffffffffffffffffffffffffffffffffffffffff021916908373ffffffffffffffffffffffffffffffffffffffff16021790555050565b600160009054906101000a900473ffffffffffffffffffffffffffffffffffffffff1673ffffffffffffffffffffffffffffffffffffffff163373ffffffffffffffffffffffffffffffffffffffff16146101bb576040517f08c379a00000000000000000000000000000000000000000000000000000000081526004016101b2906104f8565b60405180910390fd5b80600260006101000a8154816dffffffffffffffffffffffffffff021916908360901c021790555050565b6000600260009054906101000a900460901b905090565b606060038054905067ffffffffffffffff811115610244577f4e487b7100000000000000000000000000000000000000000000000000000000600052604160045260246000fd5b6040519080825280602002602001820160405280156102725781602001602082028036833780820191505090505b509050600080600090505b60038054905081101561038357600381815481106102c4577f4e487b7100000000000000000000000000000000000000000000000000000000600052603260045260246000fd5b9060005260206000200160009054906101000a900473ffffffffffffffffffffffffffffffffffffffff16838381518110610328577f4e487b7100000000000000000000000000000000000000000000000000000000600052603260045260246000fd5b602002602001019073ffffffffffffffffffffffffffffffffffffffff16908173ffffffffffffffffffffffffffffffffffffffff1681525050818061036d906105dc565b925050808061037b906105dc565b91505061027d565b505090565b6000813590506103978161067d565b92915050565b6000813590506103ac81610694565b92915050565b6000602082840312156103c457600080fd5b60006103d284828501610388565b91505092915050565b6000602082840312156103ed57600080fd5b60006103fb8482850161039d565b91505092915050565b6000610410838361041c565b60208301905092915050565b61042581610562565b82525050565b600061043682610528565b6104408185610540565b935061044b83610518565b8060005b8381101561047c5781516104638882610404565b975061046e83610533565b92505060018101905061044f565b5085935050505092915050565b61049281610574565b82525050565b60006104a5600e83610551565b91506104b082610654565b602082019050919050565b600060208201905081810360008301526104d5818461042b565b905092915050565b60006020820190506104f26000830184610489565b92915050565b6000602082019050818103600083015261051181610498565b9050919050565b6000819050602082019050919050565b600081519050919050565b6000602082019050919050565b600082825260208201905092915050565b600082825260208201905092915050565b600061056d826105b2565b9050919050565b60007fffffffffffffffffffffffffffff00000000000000000000000000000000000082169050919050565b60006105ab82610562565b9050919050565b600073ffffffffffffffffffffffffffffffffffffffff82169050919050565b6000819050919050565b60006105e7826105d2565b91507fffffffffffffffffffffffffffffffffffffffffffffffffffffffffffffffff82141561061a57610619610625565b5b600182019050919050565b7f4e487b7100000000000000000000000000000000000000000000000000000000600052601160045260246000fd5b7f4253503a20464f5242494444454e000000000000000000000000000000000000600082015250565b61068681610574565b811461069157600080fd5b50565b61069d816105a0565b81146106a857600080fd5b5056fea2646970667358221220dd792ad26e7942edfb9deb100e8b375bddca954d5894ae969fc6fd04835da56464736f6c63430008030033608060405234801561001057600080fd5b5060405161080b38038061080b833981810160405281019061003291906100ce565b33600160006101000a81548173ffffffffffffffffffffffffffffffffffffffff021916908373ffffffffffffffffffffffffffffffffffffffff160217905550806000806101000a81548173ffffffffffffffffffffffffffffffffffffffff021916908373ffffffffffffffffffffffffffffffffffffffff16021790555050610140565b6000815190506100c881610129565b92915050565b6000602082840312156100e057600080fd5b60006100ee848285016100b9565b91505092915050565b600061010282610109565b9050919050565b600073ffffffffffffffffffffffffffffffffffffffff82169050919050565b610132816100f7565b811461013d57600080fd5b50565b6106bc8061014f6000396000f3fe608060405234801561001057600080fd5b50600436106100365760003560e01c8063906571471461003b578063cc80f6f314610057575b600080fd5b610055600480360381019061005091906103ec565b610078565b005b61005f610174565b60405161006f94939291906104e0565b60405180910390f35b600160009054906101000a900473ffffffffffffffffffffffffffffffffffffffff1673ffffffffffffffffffffffffffffffffffffffff163373ffffffffffffffffffffffffffffffffffffffff1614610108576040517f08c379a00000000000000000000000000000000000000000000000000000000081526004016100ff90610533565b60405180910390fd5b84600560006101000a81548173ffffffffffffffffffffffffffffffffffffffff021916908373ffffffffffffffffffffffffffffffffffffffff16021790555081816003919061015a9291906102ea565b5083836004919061016c9291906102ea565b505050505050565b60608060008060046003600260009054906101000a900473ffffffffffffffffffffffffffffffffffffffff16600560009054906101000a900473ffffffffffffffffffffffffffffffffffffffff168380546101d0906105d4565b80601f01602080910402602001604051908101604052809291908181526020018280546101fc906105d4565b80156102495780601f1061021e57610100808354040283529160200191610249565b820191906000526020600020905b81548152906001019060200180831161022c57829003601f168201915b5050505050935082805461025c906105d4565b80601f0160208091040260200160405190810160405280929190818152602001828054610288906105d4565b80156102d55780601f106102aa576101008083540402835291602001916102d5565b820191906000526020600020905b8154815290600101906020018083116102b857829003601f168201915b50505050509250935093509350935090919293565b8280546102f6906105d4565b90600052602060002090601f016020900481019282610318576000855561035f565b82601f1061033157803560ff191683800117855561035f565b8280016001018555821561035f579182015b8281111561035e578235825591602001919060010190610343565b5b50905061036c9190610370565b5090565b5b80821115610389576000816000905550600101610371565b5090565b60008135905061039c8161066f565b92915050565b60008083601f8401126103b457600080fd5b8235905067ffffffffffffffff8111156103cd57600080fd5b6020830191508360018202830111156103e557600080fd5b9250929050565b60008060008060006060868803121561040457600080fd5b60006104128882890161038d565b955050602086013567ffffffffffffffff81111561042f57600080fd5b61043b888289016103a2565b9450945050604086013567ffffffffffffffff81111561045a57600080fd5b610466888289016103a2565b92509250509295509295909350565b61047e8161056f565b82525050565b600061048f82610553565b610499818561055e565b93506104a98185602086016105a1565b6104b281610635565b840191505092915050565b60006104ca600e8361055e565b91506104d582610646565b602082019050919050565b600060808201905081810360008301526104fa8187610484565b9050818103602083015261050e8186610484565b905061051d6040830185610475565b61052a6060830184610475565b95945050505050565b6000602082019050818103600083015261054c816104bd565b9050919050565b600081519050919050565b600082825260208201905092915050565b600061057a82610581565b9050919050565b600073ffffffffffffffffffffffffffffffffffffffff82169050919050565b60005b838110156105bf5780820151818401526020810190506105a4565b838111156105ce576000848401525b50505050565b600060028204905060018216806105ec57607f821691505b60208210811415610600576105ff610606565b5b50919050565b7f4e487b7100000000000000000000000000000000000000000000000000000000600052602260045260246000fd5b6000601f19601f8301169050919050565b7f4253503a20464f5242494444454e000000000000000000000000000000000000600082015250565b6106788161056f565b811461068357600080fd5b5056fea2646970667358221220d6b1fc5c96365f353393fb3184c8c01db9ab41c54a754def64f490f3fb7387dc64736f6c63430008030033a26469706673582212206cceff396a3c2758d8688157222fdf64f201ae9963ba61d5eb78243ab1e369e464736f6c63430008030033",
  "immutableReferences": {},
  "source": "// SPDX-License-Identifier: MIT\npragma solidity 0.8.3;\n\n// Import Ownable from the OpenZeppelin Contracts library\nimport \"./types/Building.sol\";\nimport \"./types/BuildingData.sol\";\n\n/// @title Building Data Factory\n/// @notice Responsible for tracking buildings and all types of data associated with each building\n/// @dev \n///     Controls the creation of child contracts (Building and BuildingData)\n///     Tracks all addresses of the contracts created by this factory contract\n///     Data model is: BuildingDataFactory ---[contains many]---> Building ---[contains many]---> BuildingData\n/// @author Sam Gamble\ncontract BuildingDataFactory {\n    address owner; // TODO: use OpenZeppelin IOwnable\n\n    // Data tracking\n    address[] allBuildings; // track all Building contract instances\n    address[] allBuildingData; // track all BuildingData contract instances\n    mapping(bytes14 => address) buildingByUPRN; // map UPRN to the address of the associated Building contract instance.\n    mapping(string => address) buildingDataByDocHash; // map document hash to the BuildingData a contract address\n    \n    // Constructor\n    constructor(address admin) {\n        owner = admin;\n    }\n\n    /// @notice Determines if a building is registered in this factory contract\n    /// @param uprn The UPRN to check\n    /// @return bool indicating whether the given UPRN is already registered on chain\n    function isBuildingRegistered(bytes14 uprn) public view returns (bool) {\n        return (buildingByUPRN[uprn] != address(0));\n    }\n\n    /// @notice Finds the address of the Building contract instance that corresponds with the given UPRN\n    /// @param uprn The UPRN to find the corresponding Building contract for\n    /// @return The address of the Building contract associated with the given UPRN\n    function buildingAddress(bytes14 uprn) public view returns (address) {\n        return buildingByUPRN[uprn];\n    }\n\n    /// @notice Finds the address of the BuildingDate contract instance that corresponds with the given document hash\n    /// @param documentHash The SHA256 hash of the document to find\n    /// @return The address of the BuildingDate contract\n    function buildingDataAddressByHash(string calldata documentHash) public view returns (address) {\n        return buildingDataByDocHash[documentHash];   \n    }\n\n    /// @notice Looks up the Building contract for a given UPRN. If the UPRN is not currently registered, a new Building contract is registered for the UPRN.\n    /// @param uprn The UPRN of the building to find\n    /// @return The address of the Building contract associated with the given UPRN\n    function findOrCreateBuilding(bytes14 uprn) public returns (address) {\n        // check if a Building contract exists with the same UPRN\n        if(!isBuildingRegistered(uprn)) {\n            // no Building match, so create a new Building contract \n            // and register the building in the tracking lists\n            Building building = new Building(owner);\n            building.initialize(uprn);\n            buildingByUPRN[uprn] = address(building);\n            allBuildings.push(address(building));\n        }\n\n        return buildingByUPRN[uprn];        \n    }\n\n    /// @notice Counts all the registered buildings\n    /// @return The number of buildings registered\n    function countOfBuildings() external view returns (uint) {\n        return allBuildings.length;\n    }\n\n    /// @notice Finds all of the buildings registered with this factory\n    /// @return _buildings All the on chain addresses of the registered building contracts\n    function getAllBuildings() external view returns (address[] memory _buildings) {\n       _buildings = new address[](allBuildings.length);\n       uint count;\n       for (uint i=0; i < allBuildings.length; i++) {\n            _buildings[count] = allBuildings[i];\n            count++;\n        }\n    }  \n\n    /// @notice Finds all of the building data registered with this factory\n    /// @return _buildingData All the on chain addresses of the registered building data contracts\n    function getAllBuildingData() external view returns (address[] memory _buildingData) {\n       _buildingData = new address[](allBuildingData.length);\n       uint count;\n       for (uint i=0; i < allBuildingData.length; i++) {\n            _buildingData[count] = allBuildingData[i];\n            count++;\n        }\n    }  \n\n    /// @notice Tracks a element of building data against a building\n    /// @return The address of the BuildingData contract created\n    function trackBuildingData(bytes14 uprn, string calldata documentHash, string calldata docType) public returns (address){\n        // find or create the building \n        address buildingContractAddress = findOrCreateBuilding(uprn);        \n        Building building = Building(buildingContractAddress);\n\n        if ( buildingDataByDocHash[documentHash] != address(0) ) {\n            // doc hash already registered, return address of corresponding building data contract instance\n            return buildingDataByDocHash[documentHash];\n        } else {\n            // doc hash never registered before, so create a new BuildingData contract\n            BuildingData buildingData = new BuildingData(owner);\n            buildingData.initialize(buildingContractAddress, documentHash, docType);\n\n            // register the BuildingData in the Building contracxt\n            building.addBuildingData(buildingData); // track by building\n\n            address buildDataContractAddress = address(buildingData);\n            allBuildingData.push(buildDataContractAddress); // track all BuildingData contracts ever created\n            buildingDataByDocHash[documentHash] = buildDataContractAddress;\n\n            return buildDataContractAddress;\n        }\n    }\n\n}\n",
  "sourcePath": "/Users/samg/repos/automated-markets/bsp-protocol/contracts/BuildingDataFactory.sol",
  "compiler": {
    "name": "solc",
    "version": "0.8.3+commit.8d00100c.Emscripten.clang"
  },
  "schemaVersion": "3.3.4",
  "updatedAt": "2021-05-05T00:38:19.622Z",
  "networkType": "ethereum",
  "devdoc": {
    "author": "Sam Gamble",
    "details": "     Controls the creation of child contracts (Building and BuildingData)     Tracks all addresses of the contracts created by this factory contract     Data model is: BuildingDataFactory ---[contains many]---> Building ---[contains many]---> BuildingData",
    "kind": "dev",
    "methods": {
      "buildingAddress(bytes14)": {
        "params": {
          "uprn": "The UPRN to find the corresponding Building contract for"
        },
        "returns": {
          "_0": "The address of the Building contract associated with the given UPRN"
        }
      },
      "buildingDataAddressByHash(string)": {
        "params": {
          "documentHash": "The SHA256 hash of the document to find"
        },
        "returns": {
          "_0": "The address of the BuildingDate contract"
        }
      },
      "countOfBuildings()": {
        "returns": {
          "_0": "The number of buildings registered"
        }
      },
      "findOrCreateBuilding(bytes14)": {
        "params": {
          "uprn": "The UPRN of the building to find"
        },
        "returns": {
          "_0": "The address of the Building contract associated with the given UPRN"
        }
      },
      "getAllBuildingData()": {
        "returns": {
          "_buildingData": "All the on chain addresses of the registered building data contracts"
        }
      },
      "getAllBuildings()": {
        "returns": {
          "_buildings": "All the on chain addresses of the registered building contracts"
        }
      },
      "isBuildingRegistered(bytes14)": {
        "params": {
          "uprn": "The UPRN to check"
        },
        "returns": {
          "_0": "bool indicating whether the given UPRN is already registered on chain"
        }
      },
      "trackBuildingData(bytes14,string,string)": {
        "returns": {
          "_0": "The address of the BuildingData contract created"
        }
      }
    },
    "title": "Building Data Factory",
    "version": 1
  },
  "userdoc": {
    "kind": "user",
    "methods": {
      "buildingAddress(bytes14)": {
        "notice": "Finds the address of the Building contract instance that corresponds with the given UPRN"
      },
      "buildingDataAddressByHash(string)": {
        "notice": "Finds the address of the BuildingDate contract instance that corresponds with the given document hash"
      },
      "countOfBuildings()": {
        "notice": "Counts all the registered buildings"
      },
      "findOrCreateBuilding(bytes14)": {
        "notice": "Looks up the Building contract for a given UPRN. If the UPRN is not currently registered, a new Building contract is registered for the UPRN."
      },
      "getAllBuildingData()": {
        "notice": "Finds all of the building data registered with this factory"
      },
      "getAllBuildings()": {
        "notice": "Finds all of the buildings registered with this factory"
      },
      "isBuildingRegistered(bytes14)": {
        "notice": "Determines if a building is registered in this factory contract"
      },
      "trackBuildingData(bytes14,string,string)": {
        "notice": "Tracks a element of building data against a building"
      }
    },
    "notice": "Responsible for tracking buildings and all types of data associated with each building",
    "version": 1
  }
}