{
  "contractName": "BuildingData",
  "abi": [
    {
      "inputs": [
        {
          "internalType": "address",
          "name": "admin",
          "type": "address"
        }
      ],
      "stateMutability": "nonpayable",
      "type": "constructor"
    },
    {
      "inputs": [
        {
          "internalType": "address",
          "name": "_building",
          "type": "address"
        },
        {
          "internalType": "string",
          "name": "_docHash",
          "type": "string"
        },
        {
          "internalType": "string",
          "name": "_docType",
          "type": "string"
        }
      ],
      "name": "initialize",
      "outputs": [],
      "stateMutability": "nonpayable",
      "type": "function"
    },
    {
      "inputs": [],
      "name": "show",
      "outputs": [
        {
          "internalType": "string",
          "name": "",
          "type": "string"
        },
        {
          "internalType": "string",
          "name": "",
          "type": "string"
        },
        {
          "internalType": "address",
          "name": "",
          "type": "address"
        },
        {
          "internalType": "address",
          "name": "",
          "type": "address"
        }
      ],
      "stateMutability": "view",
      "type": "function"
    }
  ],
  "bytecode": "0x608060405234801561001057600080fd5b5060405161080b38038061080b833981810160405281019061003291906100ce565b33600160006101000a81548173ffffffffffffffffffffffffffffffffffffffff021916908373ffffffffffffffffffffffffffffffffffffffff160217905550806000806101000a81548173ffffffffffffffffffffffffffffffffffffffff021916908373ffffffffffffffffffffffffffffffffffffffff16021790555050610140565b6000815190506100c881610129565b92915050565b6000602082840312156100e057600080fd5b60006100ee848285016100b9565b91505092915050565b600061010282610109565b9050919050565b600073ffffffffffffffffffffffffffffffffffffffff82169050919050565b610132816100f7565b811461013d57600080fd5b50565b6106bc8061014f6000396000f3fe608060405234801561001057600080fd5b50600436106100365760003560e01c8063906571471461003b578063cc80f6f314610057575b600080fd5b610055600480360381019061005091906103ec565b610078565b005b61005f610174565b60405161006f94939291906104e0565b60405180910390f35b600160009054906101000a900473ffffffffffffffffffffffffffffffffffffffff1673ffffffffffffffffffffffffffffffffffffffff163373ffffffffffffffffffffffffffffffffffffffff1614610108576040517f08c379a00000000000000000000000000000000000000000000000000000000081526004016100ff90610533565b60405180910390fd5b84600560006101000a81548173ffffffffffffffffffffffffffffffffffffffff021916908373ffffffffffffffffffffffffffffffffffffffff16021790555081816003919061015a9291906102ea565b5083836004919061016c9291906102ea565b505050505050565b60608060008060046003600260009054906101000a900473ffffffffffffffffffffffffffffffffffffffff16600560009054906101000a900473ffffffffffffffffffffffffffffffffffffffff168380546101d0906105d4565b80601f01602080910402602001604051908101604052809291908181526020018280546101fc906105d4565b80156102495780601f1061021e57610100808354040283529160200191610249565b820191906000526020600020905b81548152906001019060200180831161022c57829003601f168201915b5050505050935082805461025c906105d4565b80601f0160208091040260200160405190810160405280929190818152602001828054610288906105d4565b80156102d55780601f106102aa576101008083540402835291602001916102d5565b820191906000526020600020905b8154815290600101906020018083116102b857829003601f168201915b50505050509250935093509350935090919293565b8280546102f6906105d4565b90600052602060002090601f016020900481019282610318576000855561035f565b82601f1061033157803560ff191683800117855561035f565b8280016001018555821561035f579182015b8281111561035e578235825591602001919060010190610343565b5b50905061036c9190610370565b5090565b5b80821115610389576000816000905550600101610371565b5090565b60008135905061039c8161066f565b92915050565b60008083601f8401126103b457600080fd5b8235905067ffffffffffffffff8111156103cd57600080fd5b6020830191508360018202830111156103e557600080fd5b9250929050565b60008060008060006060868803121561040457600080fd5b60006104128882890161038d565b955050602086013567ffffffffffffffff81111561042f57600080fd5b61043b888289016103a2565b9450945050604086013567ffffffffffffffff81111561045a57600080fd5b610466888289016103a2565b92509250509295509295909350565b61047e8161056f565b82525050565b600061048f82610553565b610499818561055e565b93506104a98185602086016105a1565b6104b281610635565b840191505092915050565b60006104ca600e8361055e565b91506104d582610646565b602082019050919050565b600060808201905081810360008301526104fa8187610484565b9050818103602083015261050e8186610484565b905061051d6040830185610475565b61052a6060830184610475565b95945050505050565b6000602082019050818103600083015261054c816104bd565b9050919050565b600081519050919050565b600082825260208201905092915050565b600061057a82610581565b9050919050565b600073ffffffffffffffffffffffffffffffffffffffff82169050919050565b60005b838110156105bf5780820151818401526020810190506105a4565b838111156105ce576000848401525b50505050565b600060028204905060018216806105ec57607f821691505b60208210811415610600576105ff610606565b5b50919050565b7f4e487b7100000000000000000000000000000000000000000000000000000000600052602260045260246000fd5b6000601f19601f8301169050919050565b7f4253503a20464f5242494444454e000000000000000000000000000000000000600082015250565b6106788161056f565b811461068357600080fd5b5056fea2646970667358221220d6b1fc5c96365f353393fb3184c8c01db9ab41c54a754def64f490f3fb7387dc64736f6c63430008030033",
  "immutableReferences": {},
  "source": "// SPDX-License-Identifier: MIT\npragma solidity 0.8.3;\n\ncontract BuildingData {\n    address owner; // TODO: use OpenZeppelin IOwnable\n    address factory;\n    address originator; // who provided the data\n    string docType; // e.g. EWS, EWS1, HHSRS, Planning Application, S106 Agreement, Section 235 notices etc...\n    string docHash;\n    address buildingContract;\n\n    struct buildingData {\n        address originator; // who provided the data\n        string docType; // e.g. EWS, EWS1, HHSRS, Planning Application, S106 Agreement, Section 235 notices etc...\n        string docHash;\n        address buildingContract;\n    }\n\n    constructor(address admin) {\n        factory = msg.sender;\n        owner = admin;\n    }\n\n    // called once by the factory at time of deployment\n    function initialize(address _building, string calldata _docHash, string calldata _docType) external {\n        require(msg.sender == factory, 'BSP: FORBIDDEN'); // sufficient check\n        buildingContract = _building;\n        docType = _docType;\n        docHash = _docHash;\n    }\n\n    // reads all of the building data fields\n    function show() external view returns (string memory, string memory, address, address) {\n        return (docHash, docType, originator, buildingContract);\n    }\n}\n",
  "sourcePath": "/Users/samg/repos/automated-markets/bsp-protocol/contracts/types/BuildingData.sol",
  "compiler": {
    "name": "solc",
    "version": "0.8.3+commit.8d00100c.Emscripten.clang"
  },
  "schemaVersion": "3.3.4",
  "updatedAt": "2021-05-05T00:04:14.567Z",
  "devdoc": {
    "kind": "dev",
    "methods": {},
    "version": 1
  },
  "userdoc": {
    "kind": "user",
    "methods": {},
    "version": 1
  }
}