{
  "contractName": "BuildingData",
  "abi": [
    {
      "inputs": [
        {
          "internalType": "address",
          "name": "admin",
          "type": "address"
        }
      ],
      "stateMutability": "nonpayable",
      "type": "constructor"
    },
    {
      "inputs": [
        {
          "internalType": "address",
          "name": "_building",
          "type": "address"
        },
        {
          "internalType": "string",
          "name": "_docHash",
          "type": "string"
        },
        {
          "internalType": "string",
          "name": "_docType",
          "type": "string"
        },
        {
          "internalType": "address",
          "name": "_originator",
          "type": "address"
        }
      ],
      "name": "initialize",
      "outputs": [],
      "stateMutability": "nonpayable",
      "type": "function"
    },
    {
      "inputs": [],
      "name": "show",
      "outputs": [
        {
          "internalType": "string",
          "name": "",
          "type": "string"
        },
        {
          "internalType": "string",
          "name": "",
          "type": "string"
        },
        {
          "internalType": "address",
          "name": "",
          "type": "address"
        },
        {
          "internalType": "address",
          "name": "",
          "type": "address"
        }
      ],
      "stateMutability": "view",
      "type": "function"
    }
  ],
  "bytecode": "0x608060405234801561001057600080fd5b5060405161085f38038061085f833981810160405281019061003291906100ce565b33600160006101000a81548173ffffffffffffffffffffffffffffffffffffffff021916908373ffffffffffffffffffffffffffffffffffffffff160217905550806000806101000a81548173ffffffffffffffffffffffffffffffffffffffff021916908373ffffffffffffffffffffffffffffffffffffffff16021790555050610140565b6000815190506100c881610129565b92915050565b6000602082840312156100e057600080fd5b60006100ee848285016100b9565b91505092915050565b600061010282610109565b9050919050565b600073ffffffffffffffffffffffffffffffffffffffff82169050919050565b610132816100f7565b811461013d57600080fd5b50565b6107108061014f6000396000f3fe608060405234801561001057600080fd5b50600436106100365760003560e01c8063613d25bb1461003b578063cc80f6f314610057575b600080fd5b6100556004803603810190610050919061042e565b610078565b005b61005f6101b6565b60405161006f9493929190610534565b60405180910390f35b600160009054906101000a900473ffffffffffffffffffffffffffffffffffffffff1673ffffffffffffffffffffffffffffffffffffffff163373ffffffffffffffffffffffffffffffffffffffff1614610108576040517f08c379a00000000000000000000000000000000000000000000000000000000081526004016100ff90610587565b60405180910390fd5b85600560006101000a81548173ffffffffffffffffffffffffffffffffffffffff021916908373ffffffffffffffffffffffffffffffffffffffff16021790555082826003919061015a92919061032c565b5084846004919061016c92919061032c565b5080600260006101000a81548173ffffffffffffffffffffffffffffffffffffffff021916908373ffffffffffffffffffffffffffffffffffffffff160217905550505050505050565b60608060008060046003600260009054906101000a900473ffffffffffffffffffffffffffffffffffffffff16600560009054906101000a900473ffffffffffffffffffffffffffffffffffffffff1683805461021290610628565b80601f016020809104026020016040519081016040528092919081815260200182805461023e90610628565b801561028b5780601f106102605761010080835404028352916020019161028b565b820191906000526020600020905b81548152906001019060200180831161026e57829003601f168201915b5050505050935082805461029e90610628565b80601f01602080910402602001604051908101604052809291908181526020018280546102ca90610628565b80156103175780601f106102ec57610100808354040283529160200191610317565b820191906000526020600020905b8154815290600101906020018083116102fa57829003601f168201915b50505050509250935093509350935090919293565b82805461033890610628565b90600052602060002090601f01602090048101928261035a57600085556103a1565b82601f1061037357803560ff19168380011785556103a1565b828001600101855582156103a1579182015b828111156103a0578235825591602001919060010190610385565b5b5090506103ae91906103b2565b5090565b5b808211156103cb5760008160009055506001016103b3565b5090565b6000813590506103de816106c3565b92915050565b60008083601f8401126103f657600080fd5b8235905067ffffffffffffffff81111561040f57600080fd5b60208301915083600182028301111561042757600080fd5b9250929050565b6000806000806000806080878903121561044757600080fd5b600061045589828a016103cf565b965050602087013567ffffffffffffffff81111561047257600080fd5b61047e89828a016103e4565b9550955050604087013567ffffffffffffffff81111561049d57600080fd5b6104a989828a016103e4565b935093505060606104bc89828a016103cf565b9150509295509295509295565b6104d2816105c3565b82525050565b60006104e3826105a7565b6104ed81856105b2565b93506104fd8185602086016105f5565b61050681610689565b840191505092915050565b600061051e600e836105b2565b91506105298261069a565b602082019050919050565b6000608082019050818103600083015261054e81876104d8565b9050818103602083015261056281866104d8565b905061057160408301856104c9565b61057e60608301846104c9565b95945050505050565b600060208201905081810360008301526105a081610511565b9050919050565b600081519050919050565b600082825260208201905092915050565b60006105ce826105d5565b9050919050565b600073ffffffffffffffffffffffffffffffffffffffff82169050919050565b60005b838110156106135780820151818401526020810190506105f8565b83811115610622576000848401525b50505050565b6000600282049050600182168061064057607f821691505b602082108114156106545761065361065a565b5b50919050565b7f4e487b7100000000000000000000000000000000000000000000000000000000600052602260045260246000fd5b6000601f19601f8301169050919050565b7f4253503a20464f5242494444454e000000000000000000000000000000000000600082015250565b6106cc816105c3565b81146106d757600080fd5b5056fea2646970667358221220828c90f51f54d3a1268a6b51074bda497a432f79a8d2352ff502e80f8431370464736f6c63430008030033",
  "immutableReferences": {},
  "source": "// SPDX-License-Identifier: MIT\npragma solidity 0.8.3;\n\ncontract BuildingData {\n    address owner; // TODO: use OpenZeppelin IOwnable\n    address factory;\n    address originator; // who provided the data\n    string docType; // e.g. EWS, EWS1, HHSRS, Planning Application, S106 Agreement, Section 235 notices etc...\n    string docHash;\n    address buildingContract;\n\n    struct buildingData {\n        address originator; // who provided the data\n        string docType; // e.g. EWS, EWS1, HHSRS, Planning Application, S106 Agreement, Section 235 notices etc...\n        string docHash;\n        address buildingContract;\n    }\n\n    constructor(address admin) {\n        factory = msg.sender;\n        owner = admin;\n    }\n\n    // called once by the factory at time of deployment\n    function initialize(address _building, string calldata _docHash, string calldata _docType, address _originator) external {\n        require(msg.sender == factory, 'BSP: FORBIDDEN'); // sufficient check\n        buildingContract = _building;\n        docType = _docType;\n        docHash = _docHash;\n        originator = _originator;\n    }\n\n    // reads all of the building data fields\n    function show() external view returns (string memory, string memory, address, address) {\n        return (docHash, docType, originator, buildingContract);\n    }\n}\n",
  "sourcePath": "/Users/samg/repos/automated-markets/bsp-protocol/contracts/types/BuildingData.sol",
  "compiler": {
    "name": "solc",
    "version": "0.8.3+commit.8d00100c.Emscripten.clang"
  },
  "schemaVersion": "3.3.4",
  "updatedAt": "2021-05-05T13:18:48.276Z",
  "devdoc": {
    "kind": "dev",
    "methods": {},
    "version": 1
  },
  "userdoc": {
    "kind": "user",
    "methods": {},
    "version": 1
  }
}