{
  "contractName": "DocumentContract_EWS",
  "abi": [
    {
      "anonymous": false,
      "inputs": [
        {
          "indexed": false,
          "internalType": "bytes32",
          "name": "uprn",
          "type": "bytes32"
        },
        {
          "indexed": false,
          "internalType": "bytes32",
          "name": "documentHash",
          "type": "bytes32"
        },
        {
          "indexed": false,
          "internalType": "address",
          "name": "originator",
          "type": "address"
        }
      ],
      "name": "DocumentAdded_EWS",
      "type": "event"
    },
    {
      "inputs": [
        {
          "internalType": "bytes32",
          "name": "",
          "type": "bytes32"
        }
      ],
      "name": "ewsSurveys",
      "outputs": [
        {
          "internalType": "bytes32",
          "name": "documentHash",
          "type": "bytes32"
        },
        {
          "internalType": "bytes32",
          "name": "uprn",
          "type": "bytes32"
        },
        {
          "internalType": "address",
          "name": "originator",
          "type": "address"
        }
      ],
      "stateMutability": "view",
      "type": "function",
      "constant": true
    },
    {
      "inputs": [
        {
          "internalType": "bytes32",
          "name": "uprn",
          "type": "bytes32"
        },
        {
          "internalType": "bytes32",
          "name": "documentHash",
          "type": "bytes32"
        }
      ],
      "name": "add",
      "outputs": [],
      "stateMutability": "nonpayable",
      "type": "function"
    },
    {
      "inputs": [
        {
          "internalType": "bytes32",
          "name": "uprn",
          "type": "bytes32"
        },
        {
          "internalType": "bytes32",
          "name": "documentHash",
          "type": "bytes32"
        }
      ],
      "name": "verifyDocumentHash",
      "outputs": [
        {
          "internalType": "bool",
          "name": "",
          "type": "bool"
        }
      ],
      "stateMutability": "view",
      "type": "function",
      "constant": true
    }
  ],
  "bytecode": "0x608060405234801561001057600080fd5b506102ce806100206000396000f3fe608060405234801561001057600080fd5b50600436106100415760003560e01c8063b760fbe314610046578063c83f046414610094578063d1de592a146100fa575b600080fd5b61007c6004803603604081101561005c57600080fd5b810190808035906020019092919080359060200190929190505050610132565b60405180821515815260200191505060405180910390f35b6100c0600480360360208110156100aa57600080fd5b8101908080359060200190929190505050610159565b604051808481526020018381526020018273ffffffffffffffffffffffffffffffffffffffff168152602001935050505060405180910390f35b6101306004803603604081101561011057600080fd5b8101908080359060200190929190803590602001909291905050506101a3565b005b60008060008085815260200190815260200160002090508281600001541491505092915050565b60006020528060005260406000206000915090508060000154908060010154908060020160009054906101000a900473ffffffffffffffffffffffffffffffffffffffff16905083565b60008060008481526020019081526020016000209050818160000181905550338160020160006101000a81548173ffffffffffffffffffffffffffffffffffffffff021916908373ffffffffffffffffffffffffffffffffffffffff1602179055508281600101819055507f70204c974f79bc88567325456c06bf7d7bb89fec50294e86255b04e4417deaa58382600001548360020160009054906101000a900473ffffffffffffffffffffffffffffffffffffffff16604051808481526020018381526020018273ffffffffffffffffffffffffffffffffffffffff168152602001935050505060405180910390a150505056fea264697066735822122092d3e30f163d15af9b85e2e19cf4507b93aac73d32c764242ffc2b947d23b16d64736f6c634300060c0033",
  "immutableReferences": {},
  "source": "// contracts/DocumentContract_EWS.sol\n// SPDX-License-Identifier: MIT\npragma solidity ^0.6.0;\n\n\ncontract DocumentContract_EWS {\n\n    struct BuildingData_EWS {\n        bytes32 documentHash; // weight is accumulated by delegation\n        bytes32 uprn;  // if true, that person already voted\n        address originator; // person delegated to\n    }\n\n    // store a mapping if UPRNs to EWS documents\n    mapping(bytes32 => BuildingData_EWS) public ewsSurveys;\n\n    // Emitted when the an EWS document is added to the contract\n    event DocumentAdded_EWS(bytes32 uprn, bytes32 documentHash, address originator);\n\n    // Stores a new EWS document for a building\n    function add(bytes32 uprn, bytes32 documentHash) public {        \n        // add the document to the interna doc storage\n        BuildingData_EWS storage ewsSurvey = ewsSurveys[uprn];\n        ewsSurvey.documentHash = documentHash;\n        ewsSurvey.originator = msg.sender;\n        ewsSurvey.uprn = uprn;\n        \n        // tell all interested parties that a new EWS document has been added for a given building\n        emit DocumentAdded_EWS(uprn, ewsSurvey.documentHash, ewsSurvey.originator);\n    }\n\n    // Verifies a document hash is a known EWS survey for a given building\n    function verifyDocumentHash(bytes32 uprn, bytes32 documentHash) public view returns (bool) {\n        BuildingData_EWS storage ewsSurvey = ewsSurveys[uprn];\n        return ewsSurvey.documentHash == documentHash;\n    }\n\n}\n",
  "sourcePath": "/Users/samg/repos/automated-markets/bsp-protocol/contracts/DocumentContract_EWS.sol",
  "compiler": {
    "name": "solc",
    "version": "0.6.12+commit.27d51765.Emscripten.clang"
  },
  "schemaVersion": "3.3.4",
  "updatedAt": "2021-03-20T02:02:21.839Z",
  "networkType": "ethereum",
  "devdoc": {
    "kind": "dev",
    "methods": {},
    "version": 1
  },
  "userdoc": {
    "kind": "user",
    "methods": {},
    "version": 1
  }
}